:100000000C9434000C9451000C9451000C94510049
:100010000C9451000C9451000C9451000C9451001C
:100020000C9451000C9451000C9451000C9451000C
:100030000C9451000C9451000C9451000C945100FC
:100040000C9451000C9451000C9451000C945100EC
:100050000C9451000C9451000C9451000C945100DC
:100060000C9451000C94510011241FBECFEFD8E026
:10007000DEBFCDBF11E0A0E0B1E0ECE2F1E002C0F4
:1000800005900D92AC31B107D9F721E0ACE1B1E0B8
:1000900001C01D92A232B207E1F70E947B000C94CE
:1000A00094000C94000008951092C50087E6809398
:1000B000C400E0ECF0E080818D7F808386E0809357
:1000C000C20088E18093C1000895CF93C82F8A3081
:1000D00019F48DE00E9465008091C00085FFFCCF7F
:1000E000C093C600CF9108958091C00087FFFCCFD8
:1000F0008091C60008950E9454008EE091E0909394
:100100001F0180931E012FEF87EA91E62150804066
:100110009040E1F700C000002FEF83ED90E3215005
:0C01200080409040E1F7F6CFF894FFCF4C
:10012C00000000010000000000007400000000004E
:0C013C0000020000000065000000000050
:00000001FF
