:100000000C9434000C9451000C9451000C94510049
:100010000C9451000C9451000C9451000C9451001C
:100020000C9451000C9451000C9451000C9451000C
:100030000C9451000C9451000C9451000C945100FC
:100040000C9451000C9451000C9451000C945100EC
:100050000C9451000C9451000C9451000C945100DC
:100060000C9451000C94510011241FBECFEFD8E026
:10007000DEBFCDBF11E0A0E0B1E0E2E9F1E002C0F7
:1000800005900D92AC33B107D9F721E0ACE3B1E0B4
:1000900001C01D92A234B207E1F70E947A000C94CD
:1000A000C7000C9400001092C50087E68093C4003E
:1000B000E0ECF0E080818D7F808386E08093C20059
:1000C00088E18093C1000895CF93C82F8A3019F436
:1000D0008DE00E9464008091C00085FFFCCFC0933A
:1000E000C600CF9108958091C00087FFFCCF80911A
:1000F000C60008950E9453008EE091E090933F0166
:1001000080933E012FEF83E294EF21508040904096
:10011000E1F700C000008CE191E00E9497002FEF12
:1001200083ED90E3215080409040E1F7F2CF0F93B0
:100130001F93CF93DF93E0913E01F0913F01238124
:1001400021FF1BC08C01D0E0C0E0F80181918F013C
:1001500060913E0170913F01DB011896ED91FC9199
:100160001997882331F00995892B79F3DFEFCFEFC9
:10017000ECCF8AE00995892B19F08FEF9FEF02C031
:100180008D2F9C2FDF91CF911F910F910895F8949F
:02019000FFCF9F
:1001920000000001000000000000730000000000E9
:1001A20000020000000064000000000048656C6C62
:1001B2006F20776F726C6421736461646173646130
:0C01C200736461736461736473616400B2
:00000001FF
