:100000000C9434000C9451000C9451000C94510049
:100010000C9451000C9451000C9451000C9451001C
:100020000C9451000C9451000C9451000C9451000C
:100030000C9451000C9451000C9451000C945100FC
:100040000C9466000C9451000C9451000C945100D7
:100050000C9451000C9451000C9451000C945100DC
:100060000C9451000C94510011241FBECFEFD8E026
:10007000DEBFCDBF11E0A0E0B1E0E4EFF1E002C0EF
:1000800005900D92A435B107D9F721E0A4E5B1E0C0
:1000900001C01D92AE35B207E1F70E94A8000C9492
:1000A000F8000C94000085B5846085BD16BCEEE6B2
:1000B000F0E08081816080837894109257011092E3
:1000C0005601109255011092540108951F920F92FB
:1000D0000FB60F9211248F939F93809156019091A8
:1000E00057010196909357018093560180915601D4
:1000F000909157019F918F910F900FBE0F901F907D
:1001000018951092C50087E68093C400E0ECF0E0FB
:1001100080818D7F808386E08093C20088E1809318
:10012000C1000895CF93C82F8A3019F48DE00E9442
:1001300092008091C00085FFFCCFC093C600CF9194
:1001400008958091C00087FFFCCF8091C60008957C
:100150000E9481008EE091E090935B0180935A01B0
:100160002FEF87EA91E6215080409040E1F700C0F0
:1001700000008CE191E00E94C8008CE191E00E94B7
:10018000C8008CE191E00E94C80083E291E0FBCFBF
:100190000F931F93CF93DF93E0915A01F0915B018E
:1001A000238121FF1BC08C01D0E0C0E0F8018191C8
:1001B0008F0160915A0170915B01DB011896ED91FE
:1001C000FC911997882331F00995892B79F3DFEF9A
:1001D000CFEFECCF8AE00995892B19F08FEF9FEFD5
:1001E00002C08D2F9C2FDF91CF911F910F91089509
:0401F000F894FFCFB1
:1001F40000000001000000000000A1000000000059
:10020400000200000000920000000000696E6963B3
:10021400696F006A6F73656F6A73656A6F736A6585
:100224006A6F73656A6F736A656F73656F736A6506
:100234006F6A73656F6A736F656A736F656A6F73EC
:040244006A656F0078
:00000001FF
