:100000000C9434000C9451000C9451000C94510049
:100010000C9451000C9451000C9451000C9451001C
:100020000C9451000C9451000C9451000C9451000C
:100030000C9451000C9451000C9451000C945100FC
:100040000C9451000C9451000C9451000C945100EC
:100050000C9451000C9451000C9451000C945100DC
:100060000C9451000C94510011241FBECFEFD8E026
:10007000DEBFCDBF11E0A0E0B1E0EEEDFCE002C0DC
:1000800005900D92A434B107D9F721E0A4E4B1E0C2
:1000900001C01D92A036B207E1F70E94B6020C948F
:1000A0006D060C94000008951092C50087E68093B9
:1000B000C400E0ECF0E080818D7F808386E0809357
:1000C000C20088E18093C1000895CF93C82F8A3081
:1000D00019F48DE00E9465008091C00085FFFCCF7F
:1000E000C093C600CF9108958091C00087FFFCCFD8
:1000F0008091C60008956AE471E00E9482008AE45B
:1001000091E00895A4E0B0E0E8E8F0E00C94310656
:100110006C017B01E0915A01F0915B01309729F06D
:1001200066E571E009958C0102C00FEF1FEFF60143
:100130004081518162817381809156019091570174
:10014000A0915801B0915901840F951FA61FB71FA8
:10015000101611064CF4A801012E000C660B770B4B
:10016000840F951FA61FB71F89839A83AB83BC8317
:10017000B701CE0101960E943001F7011387028773
:100180002496E8E00C944D06A4E0B0E0EAECF0E040
:100190000C9431068C010E94F70169837A838B836A
:1001A0009C83F8018285938597FF0EC0E0915A01E8
:1001B000F0915B01309741F066E571E0CE01019668
:1001C0000995F80193878287F8018285938518162F
:1001D000190694F4092E000CAA0BBB0B49815A8115
:1001E0006B817C816A017B01C81AD90AEA0AFB0A81
:1001F000C982DA82EB82FC8289819A81AB81BC81DF
:1002000040915601509157016091580170915901E8
:10021000841B950BA60BB70B89839A83AB83BC8396
:10022000B801CE0101960E94820069817A818B819A
:100230009C812496E8E00C944D06FC010FB6F894DE
:1002400060915C0170915D0180915E0190915F0110
:100250000FBE309721F0608371838283938308956A
:10026000A8E0B0E0E6E3F1E00C9431068B01FC017C
:10027000608171818281938120E831E541E050E025
:100280000E94D40569017A012CE330E040E050E09F
:100290000E94F60529833A834B835C8389819A8186
:1002A000AB81BC81F80160836CE370E00E94C00503
:1002B000DC01CB01F801A1838283C601069667E0C9
:1002C00070E00E94AC0584832DEA3EE840E050E0F7
:1002D000C701B6010E94F60529833A836D837E83A8
:1002E0008F83988789819A8124E6289F6001299FBE
:1002F000D00C11246D817E818F81988525EB35E0AE
:1003000040E050E00E94F60529833A836D837E83A6
:10031000E980FA80EE0CFF1CEE0CFF1CEC0CFD1CBF
:100320008D819E81F5E6EF16F10410F0019604C070
:1003300024E6E216F10419F021E030E002C020E0EA
:1003400030E0A90144595E4F4817590768F46DE63B
:1003500071E0821B930B0E94C005DC01CB01E80E0B
:10036000F91ECD0120E030E044E6E40EF11CF80176
:10037000F782E68291878087255C3F4F821793073B
:1003800048F46FE170E00E94C005DC01CB01F80188
:10039000858322C069E970E0821B930B0E94C0052F
:1003A000DC01CB01F82EFF0CFF0CF80E6DE370E0C2
:1003B000CD010E94C005DC01CB01E82EEE0C6FE1FF
:1003C00070E0CD010E94C005DC01CB0122E0280FC6
:1003D000F20EFE0CF801F582A383F8011386128653
:1003E00083818F5F83832896E8E00C944D06A0E01C
:1003F000B0E0EDEFF1E00C942D06EC01EE81FF8111
:100400008F0104561109B9F0CF01855691096C018D
:1004100097FF03C023E0C20ED11CD594C794D59496
:10042000C7946CE97FEF0E94C005C60ED71E8FEF00
:10043000C81AD80A02C0C12CD12C2DE631E0D8014F
:100440000E9415060D2C000CEE08FF08C60ED71EE4
:10045000E81EF91E8B81082E000C990B8C010150AF
:1004600011092D8122302CF4222379F1015E1F4FD6
:100470002CC0CF018459984F0E94A202282F30E04F
:10048000255C3F4F200F311F8D81082E000C990BEA
:1004900002978530910514F027563F4F65E070E0D4
:1004A0000E94C005AC0197FF02C04F5F5F4F55959A
:1004B00047959DE3949F8001959F100D1124020F95
:1004C000131F80FF02C0015E1F4FC801110FAA0B4E
:1004D000BB0B9C01AD012C0D3D1D4E1D5F1D60E849
:1004E00071E581E090E00E949C054B015C01AA81CE
:1004F0000A2E000CBB0B20E13EE00E9415066B01AA
:100500007C01A9810A2E000CBB0B2CE330E00E9479
:100510001506C60ED71EE81EF91E6881862F660FC7
:10052000990BAA0BBB0B8C0D9D1DAE1DBF1DBC01F5
:10053000CD01680D791D8A1D9B1DCDB7DEB7ECE09E
:100540000C9449069C0123703327232B59F464E64D
:1005500070E00E94C005892B39F46370772781E031
:10056000672B19F080E0089581E00895CF93DF9321
:1005700000D000D0CDB7DEB70E9454008EE091E0ED
:1005800090934701809346012FEF87EA91E621502F
:1005900080409040E1F700C000000CE111E080E0F5
:1005A00090E00E941D0169837A838B839C83CE0136
:1005B00001960E947B000E94C40069837A838B832A
:1005C0009C837F936F931F930F930E94F5022FEFED
:1005D00083ED90E3215080409040E1F700C000009F
:1005E0000F900F900F900F90DACFA0E0B0E0EBEFFC
:1005F000F2E00C943706AE014B5F5F4FFA01619158
:100600007191AF0180914601909147010E940B03C7
:10061000E2E00C945306ABE0B0E0E1E1F3E00C94CF
:1006200027066C017B018A01FC01178216828381F7
:1006300081FFCCC1CE0101963C01F6019381F70107
:1006400093FD859193FF81917F01882309F4BAC1BD
:10065000853239F493FD859193FF81917F01853235
:1006600029F4B60190E00E940205E7CF912C212CDD
:10067000312CFFE1F315D8F08B3279F038F4803269
:1006800079F08332A1F4232D20611DC08D3261F0F9
:10069000803369F4232D216016C0832D8260382EAB
:1006A000E32DE4603E2E2AC0F32DF8601DC037FC18
:1006B0002DC020ED280F2A3040F08E32B9F436FCE0
:1006C00081C1232D2064322E19C036FE06C08AE077
:1006D000989E200D1124922E11C0EAE02E9E200D2E
:1006E0001124222EF32DF0623F2E08C08C3621F407
:1006F000832D8068382E02C0883641F4F70193FDBF
:10070000859193FF81917F018111B3CF982F9F7DB8
:100710009554933028F40C5F1F4F9FE399830DC0CD
:10072000833631F0833771F0833509F059C021C029
:10073000F801808189830E5F1F4F88248394912C58
:10074000530113C02801F2E04F0E511CF801A080A4
:10075000B18036FE03C0692D70E002C06FEF7FEFFD
:10076000C5010E94F7044C018201F32DFF773F2E53
:1007700016C0280122E0420E511CF801A080B18071
:1007800036FE03C0692D70E002C06FEF7FEFC50138
:100790000E94EC044C01F32DF0683F2E820133FCE3
:1007A0001BC0822D90E088169906B0F4B60180E255
:1007B00090E00E9402052A94F4CFF50137FC859160
:1007C00037FE81915F01B60190E00E940205211081
:1007D0002A9421E0821A91088114910471F7E8C0EB
:1007E000843611F0893641F5F80137FE07C0608183
:1007F0007181828193810C5F1F4F08C0608171817C
:10080000072E000C880B990B0E5F1F4FF32DFF7600
:100810003F2E97FF09C090958095709561957F4F09
:100820008F4F9F4FF0683F2E2AE030E0A3010E94D7
:100830003E05882E861845C0853731F4232D2F7E3E
:10084000B22E2AE030E025C0932D997FB92E8F3645
:10085000C1F018F4883579F0B5C0803719F08837C1
:1008600021F0B0C0E92FE061BE2EB4FE0DC0FB2D1B
:10087000F460BF2E09C034FE0AC0292F2660B22EB4
:1008800006C028E030E005C020E130E002C020E1F1
:1008900032E0F801B7FE07C06081718182819381E7
:1008A0000C5F1F4F06C06081718180E090E00E5F99
:1008B0001F4FA3010E943E05882E8618FB2DFF774F
:1008C0003F2E36FE0DC0232D2E7FA22E891458F404
:1008D00034FE0BC032FC09C0832D8E7EA82E05C0CD
:1008E000B82CA32C03C0B82C01C0B92CA4FE0FC097
:1008F000FE01E80DF11D8081803321F49A2D997E4F
:10090000A92E09C0A2FE06C0B394B39404C08A2DD8
:10091000867809F0B394A3FC11C0A0FE06C0B214FF
:1009200088F4280C922C9B180EC0B21460F4B60107
:1009300080E290E00E940205B394F7CFB21418F45D
:100940002B1802C0982C212CA4FE10C0B60180E305
:1009500090E00E940205A2FE17C0A1FC03C088E738
:1009600090E002C088E590E0B6010CC08A2D867840
:1009700059F0A1FE02C08BE201C080E2A7FC8DE22B
:10098000B60190E00E940205891438F4B60180E3B4
:1009900090E00E9402059A94F7CF8A94F301E80D43
:1009A000F11D8081B60190E00E9402058110F5CF13
:1009B000222009F442CEB60180E290E00E940205B6
:1009C0002A94F6CFF6018681978102C08FEF9FEFC0
:1009D0002B96E2E10C944306FC01059061507040B7
:1009E0000110D8F7809590958E0F9F1F0895FC01F8
:1009F0006150704001900110D8F7809590958E0F4E
:100A00009F1F08950F931F93CF93DF93FB012381C3
:100A100021FD03C08FEF9FEF2CC022FF16C046813F
:100A20005781248135814217530744F4A081B18155
:100A30009D012F5F3F4F318320838C932681378127
:100A40002F5F3F4F3783268314C08B01EC01FB01DE
:100A50000084F185E02D0995892BE1F6D8011696E1
:100A60008D919C911797019617969C938E9316974C
:100A7000CE01DF91CF911F910F910895FA01AA271E
:100A8000283051F1203181F1E8946F936E7F6E5FD1
:100A90007F4F8F4F9F4FAF4FB1E03ED0B4E03CD07F
:100AA000670F781F891F9A1FA11D680F791F8A1F62
:100AB000911DA11D6A0F711D811D911DA11D20D0C9
:100AC00009F468943F912AE0269F11243019305D83
:100AD0003193DEF6CF010895462F4770405D419374
:100AE000B3E00FD0C9F7F6CF462F4F70405D4A33C1
:100AF00018F0495D31FD4052419302D0A9F7EACF89
:100B0000B4E0A6959795879577956795BA95C9F7B7
:100B100000976105710508959B01AC010A2E0694AA
:100B20005795479537952795BA95C9F7620F731F63
:100B3000841F951FA01D0895DB018F939F930E9432
:100B40001C06BF91AF91A29F800D911DA39F900D98
:100B5000B29F900D11240895AA1BBB1B51E107C041
:100B6000AA1FBB1FA617B70710F0A61BB70B881F3D
:100B7000991F5A95A9F780959095BC01CD010895CC
:100B800097FB072E16F4009407D077FD09D00E943A
:100B9000AC0507FC05D03EF4909581959F4F0895D4
:100BA000709561957F4F0895A1E21A2EAA1BBB1B79
:100BB000FD010DC0AA1FBB1FEE1FFF1FA217B30729
:100BC000E407F50720F0A21BB30BE40BF50B661F3F
:100BD000771F881F991F1A9469F760957095809503
:100BE00090959B01AC01BD01CF010895052E97FBA7
:100BF0001EF400940E940D0657FD07D00E94D405F4
:100C000007FC03D04EF40C940D065095409530959A
:100C100021953F4F4F4F5F4F089590958095709568
:100C200061957F4F8F4F9F4F08950E945E06B7FFDB
:100C30000895821B930B08950E945E06A59F900D58
:100C4000B49F900DA49F800D911D112408952F92A3
:100C50003F924F925F926F927F928F929F92AF924C
:100C6000BF92CF92DF92EF92FF920F931F93CF9399
:100C7000DF93CDB7DEB7CA1BDB0B0FB6F894DEBF30
:100C80000FBECDBF09942A88398848885F846E8456
:100C90007D848C849B84AA84B984C884DF80EE80A0
:100CA000FD800C811B81AA81B981CE0FD11D0FB6A9
:100CB000F894DEBF0FBECDBFED010895A29FB00135
:100CC000B39FC001A39F700D811D1124911DB29F80
:0E0CD000700D811D1124911D0895F894FFCF21
:100CDE000000000100000000000074000000000091
:100CEE0000020000000065000000000074686174DE
:100CFE00206973202575207365636F6E647320738E
:100D0E00696E636520317374204A616E2031393704
:040D1E00300A000097
:00000001FF
